{
  "contractName": "Claimable",
  "abi": [
    {
      "constant": false,
      "inputs": [],
      "name": "renounceOwnership",
      "outputs": [],
      "payable": false,
      "stateMutability": "nonpayable",
      "type": "function"
    },
    {
      "constant": true,
      "inputs": [],
      "name": "owner",
      "outputs": [
        {
          "name": "",
          "type": "address"
        }
      ],
      "payable": false,
      "stateMutability": "view",
      "type": "function"
    },
    {
      "constant": true,
      "inputs": [
        {
          "name": "",
          "type": "address"
        }
      ],
      "name": "claimed",
      "outputs": [
        {
          "name": "",
          "type": "bool"
        }
      ],
      "payable": false,
      "stateMutability": "view",
      "type": "function"
    },
    {
      "constant": false,
      "inputs": [
        {
          "name": "_newOwner",
          "type": "address"
        }
      ],
      "name": "transferOwnership",
      "outputs": [],
      "payable": false,
      "stateMutability": "nonpayable",
      "type": "function"
    },
    {
      "inputs": [
        {
          "name": "_finMigrationContract",
          "type": "address"
        }
      ],
      "payable": false,
      "stateMutability": "nonpayable",
      "type": "constructor"
    },
    {
      "anonymous": false,
      "inputs": [
        {
          "indexed": true,
          "name": "previousMigrationContract",
          "type": "address"
        },
        {
          "indexed": true,
          "name": "newMigrationContract",
          "type": "address"
        }
      ],
      "name": "MigrationSourceTransferred",
      "type": "event"
    },
    {
      "anonymous": false,
      "inputs": [
        {
          "indexed": true,
          "name": "previousOwner",
          "type": "address"
        }
      ],
      "name": "OwnershipRenounced",
      "type": "event"
    },
    {
      "anonymous": false,
      "inputs": [
        {
          "indexed": true,
          "name": "previousOwner",
          "type": "address"
        },
        {
          "indexed": true,
          "name": "newOwner",
          "type": "address"
        }
      ],
      "name": "OwnershipTransferred",
      "type": "event"
    },
    {
      "constant": false,
      "inputs": [
        {
          "name": "_newMigrationContract",
          "type": "address"
        }
      ],
      "name": "transferMigrationSource",
      "outputs": [],
      "payable": false,
      "stateMutability": "nonpayable",
      "type": "function"
    }
  ],
  "bytecode": "0x608060405234801561001057600080fd5b506040516020806106bc83398101806040528101908080519060200190929190505050336000806101000a81548173ffffffffffffffffffffffffffffffffffffffff021916908373ffffffffffffffffffffffffffffffffffffffff16021790555080600160006101000a81548173ffffffffffffffffffffffffffffffffffffffff021916908373ffffffffffffffffffffffffffffffffffffffff160217905550506105f8806100c46000396000f30060806040526004361061006d576000357c0100000000000000000000000000000000000000000000000000000000900463ffffffff168063715018a6146100725780638da5cb5b1461008957806391181c17146100e0578063c884ef8314610123578063f2fde38b1461017e575b600080fd5b34801561007e57600080fd5b506100876101c1565b005b34801561009557600080fd5b5061009e6102c3565b604051808273ffffffffffffffffffffffffffffffffffffffff1673ffffffffffffffffffffffffffffffffffffffff16815260200191505060405180910390f35b3480156100ec57600080fd5b50610121600480360381019080803573ffffffffffffffffffffffffffffffffffffffff1690602001909291905050506102e8565b005b34801561012f57600080fd5b50610164600480360381019080803573ffffffffffffffffffffffffffffffffffffffff16906020019092919050505061034f565b604051808215151515815260200191505060405180910390f35b34801561018a57600080fd5b506101bf600480360381019080803573ffffffffffffffffffffffffffffffffffffffff16906020019092919050505061036f565b005b6000809054906101000a900473ffffffffffffffffffffffffffffffffffffffff1673ffffffffffffffffffffffffffffffffffffffff163373ffffffffffffffffffffffffffffffffffffffff1614151561021c57600080fd5b6000809054906101000a900473ffffffffffffffffffffffffffffffffffffffff1673ffffffffffffffffffffffffffffffffffffffff167ff8df31144d9c2f0f6b59d69b8b98abd5459d07f2742c4df920b25aae33c6482060405160405180910390a260008060006101000a81548173ffffffffffffffffffffffffffffffffffffffff021916908373ffffffffffffffffffffffffffffffffffffffff160217905550565b6000809054906101000a900473ffffffffffffffffffffffffffffffffffffffff1681565b6000809054906101000a900473ffffffffffffffffffffffffffffffffffffffff1673ffffffffffffffffffffffffffffffffffffffff163373ffffffffffffffffffffffffffffffffffffffff1614151561034357600080fd5b61034c816103d6565b50565b60026020528060005260406000206000915054906101000a900460ff1681565b6000809054906101000a900473ffffffffffffffffffffffffffffffffffffffff1673ffffffffffffffffffffffffffffffffffffffff163373ffffffffffffffffffffffffffffffffffffffff161415156103ca57600080fd5b6103d3816104d2565b50565b600073ffffffffffffffffffffffffffffffffffffffff168173ffffffffffffffffffffffffffffffffffffffff161415151561041257600080fd5b8073ffffffffffffffffffffffffffffffffffffffff16600160009054906101000a900473ffffffffffffffffffffffffffffffffffffffff1673ffffffffffffffffffffffffffffffffffffffff167f7a00988434a2cc24b3b433c7ca3fc16cb892a027b7cbe0a380fc6383e04d88e960405160405180910390a380600160006101000a81548173ffffffffffffffffffffffffffffffffffffffff021916908373ffffffffffffffffffffffffffffffffffffffff16021790555050565b600073ffffffffffffffffffffffffffffffffffffffff168173ffffffffffffffffffffffffffffffffffffffff161415151561050e57600080fd5b8073ffffffffffffffffffffffffffffffffffffffff166000809054906101000a900473ffffffffffffffffffffffffffffffffffffffff1673ffffffffffffffffffffffffffffffffffffffff167f8be0079c531659141344cd1fd0a4f28419497f9722a3daafe3b4186f6b6457e060405160405180910390a3806000806101000a81548173ffffffffffffffffffffffffffffffffffffffff021916908373ffffffffffffffffffffffffffffffffffffffff160217905550505600a165627a7a723058204a05a0fbd85c7c41def3b7ca3fa7691cbe4681f6bbd3656a4dcf645eb88c13800029",
  "source": "pragma solidity ^0.4.24;\n\nimport \"../../FIN-MIGRATE/contracts/FINMigrate.sol\";\nimport \"../../OWNABLE/Ownable.sol\";\n\n/**\n * @title Claimable\n * @dev The Claimable contract has an claim contract address, and provides basic authorization control\n * for the minting functions, this simplifies the implementation of \"minting permissions\".\n */\n\n\ncontract Claimable is Ownable {\n    //FINMigrate var definition\n    FINMigrate finMigrationContract;\n\n    // an address map used to store the cliamed flag, so accounts cannot claim more than once\n    mapping (address => bool) public claimed;\n\n    event MigrationSourceTransferred(\n        address indexed previousMigrationContract,\n        address indexed newMigrationContract\n    );\n\n\n    /**\n    * @dev The Claimable constructor sets the original `claim contract` to the provided _claimContract\n    * account.\n    */\n    constructor(FINMigrate _finMigrationContract) public {\n        finMigrationContract = _finMigrationContract;\n    }\n\n    /**\n    * @dev Throws if called by any account other than the claimContract.\n    */\n    modifier canClaim() {\n        require(finMigrationContract.recordGet(msg.sender) != 0);\n        require(claimed[msg.sender] == false);\n        _;\n    }\n\n    /**\n    * @dev Allows to change the migration information source contract.\n    * @param _newMigrationContract The address of the new migration contract\n    */\n    function transferMigrationSource(FINMigrate _newMigrationContract) public onlyOwner {\n        _transferMigrationSource(_newMigrationContract);\n    }\n\n    /**\n    * @dev Transfers the reference of the recorded migrations contract to a newMigrationContract.\n    * @param _newMigrationContract The address of the new migration contract\n    */\n    function _transferMigrationSource(FINMigrate _newMigrationContract) internal {\n        require(_newMigrationContract != address(0));\n        emit MigrationSourceTransferred(finMigrationContract, _newMigrationContract);\n        finMigrationContract = _newMigrationContract;\n    }\n}",
  "sourcePath": "/media/toniya/HDD/dapp_contracts/contracts/FIN-ERC20/contracts/Claimable.sol",
  "compiler": {
    "name": "solc",
    "version": "0.4.24+commit.e67f0147.Emscripten.clang"
  },
  "schemaVersion": "2.0.1",
  "updatedAt": "2018-08-10T07:46:05.553Z"
}