{
  "contractName": "FinExchange",
  "abi": [
    {
      "constant": false,
      "inputs": [],
      "name": "renounceOwnership",
      "outputs": [],
      "payable": false,
      "stateMutability": "nonpayable",
      "type": "function"
    },
    {
      "constant": true,
      "inputs": [],
      "name": "owner",
      "outputs": [
        {
          "name": "",
          "type": "address"
        }
      ],
      "payable": false,
      "stateMutability": "view",
      "type": "function"
    },
    {
      "constant": false,
      "inputs": [
        {
          "name": "_newOwner",
          "type": "address"
        }
      ],
      "name": "transferOwnership",
      "outputs": [],
      "payable": false,
      "stateMutability": "nonpayable",
      "type": "function"
    },
    {
      "inputs": [
        {
          "name": "_mintableToken",
          "type": "address"
        }
      ],
      "payable": false,
      "stateMutability": "nonpayable",
      "type": "constructor"
    },
    {
      "anonymous": false,
      "inputs": [
        {
          "indexed": true,
          "name": "uuid",
          "type": "bytes32"
        },
        {
          "indexed": true,
          "name": "sellerAddress",
          "type": "address"
        },
        {
          "indexed": false,
          "name": "tokenDeposit",
          "type": "uint256"
        }
      ],
      "name": "DEPOSIT",
      "type": "event"
    },
    {
      "anonymous": false,
      "inputs": [
        {
          "indexed": false,
          "name": "receivers",
          "type": "address[]"
        },
        {
          "indexed": false,
          "name": "tokens",
          "type": "uint256[]"
        }
      ],
      "name": "SENT",
      "type": "event"
    },
    {
      "anonymous": false,
      "inputs": [
        {
          "indexed": true,
          "name": "previousOwner",
          "type": "address"
        }
      ],
      "name": "OwnershipRenounced",
      "type": "event"
    },
    {
      "anonymous": false,
      "inputs": [
        {
          "indexed": true,
          "name": "previousOwner",
          "type": "address"
        },
        {
          "indexed": true,
          "name": "newOwner",
          "type": "address"
        }
      ],
      "name": "OwnershipTransferred",
      "type": "event"
    },
    {
      "constant": false,
      "inputs": [
        {
          "name": "_uuid",
          "type": "bytes32"
        },
        {
          "name": "_tokens",
          "type": "uint256"
        }
      ],
      "name": "deposit",
      "outputs": [
        {
          "name": "",
          "type": "bool"
        }
      ],
      "payable": false,
      "stateMutability": "nonpayable",
      "type": "function"
    },
    {
      "constant": false,
      "inputs": [
        {
          "name": "_to",
          "type": "address[]"
        },
        {
          "name": "_tokens",
          "type": "uint256[]"
        }
      ],
      "name": "sendTokens",
      "outputs": [],
      "payable": false,
      "stateMutability": "nonpayable",
      "type": "function"
    },
    {
      "constant": true,
      "inputs": [
        {
          "name": "_uuid",
          "type": "bytes32"
        }
      ],
      "name": "getSeller",
      "outputs": [
        {
          "name": "",
          "type": "address"
        },
        {
          "name": "",
          "type": "uint256"
        }
      ],
      "payable": false,
      "stateMutability": "view",
      "type": "function"
    }
  ],
  "bytecode": "0x608060405234801561001057600080fd5b50604051602080610b1083398101806040528101908080519060200190929190505050336000806101000a81548173ffffffffffffffffffffffffffffffffffffffff021916908373ffffffffffffffffffffffffffffffffffffffff16021790555080600260006101000a81548173ffffffffffffffffffffffffffffffffffffffff021916908373ffffffffffffffffffffffffffffffffffffffff16021790555050610a4c806100c46000396000f300608060405260043610610078576000357c0100000000000000000000000000000000000000000000000000000000900463ffffffff1680631de26e161461007d578063715018a6146100d05780637e44e504146100e75780638da5cb5b1461015f578063d8b66ae1146101b6578063f2fde38b1461025f575b600080fd5b34801561008957600080fd5b506100b66004803603810190808035600019169060200190929190803590602001909291905050506102a2565b604051808215151515815260200191505060405180910390f35b3480156100dc57600080fd5b506100e5610423565b005b3480156100f357600080fd5b506101166004803603810190808035600019169060200190929190505050610525565b604051808373ffffffffffffffffffffffffffffffffffffffff1673ffffffffffffffffffffffffffffffffffffffff1681526020018281526020019250505060405180910390f35b34801561016b57600080fd5b5061017461058f565b604051808273ffffffffffffffffffffffffffffffffffffffff1673ffffffffffffffffffffffffffffffffffffffff16815260200191505060405180910390f35b3480156101c257600080fd5b5061025d60048036038101908080359060200190820180359060200190808060200260200160405190810160405280939291908181526020018383602002808284378201915050505050509192919290803590602001908201803590602001908080602002602001604051908101604052809392919081815260200183836020028082843782019150505050505091929192905050506105b4565b005b34801561026b57600080fd5b506102a0600480360381019080803573ffffffffffffffffffffffffffffffffffffffff1690602001909291905050506108bf565b005b6000808360001916141580156102b85750600082115b151561032c576040517f08c379a00000000000000000000000000000000000000000000000000000000081526004018080602001828103825260148152602001807f4e6f742076616c696420706172616d657465727300000000000000000000000081525060200191505060405180910390fd5b60408051908101604052803373ffffffffffffffffffffffffffffffffffffffff1681526020018381525060016000856000191660001916815260200190815260200160002060008201518160000160006101000a81548173ffffffffffffffffffffffffffffffffffffffff021916908373ffffffffffffffffffffffffffffffffffffffff160217905550602082015181600101559050503373ffffffffffffffffffffffffffffffffffffffff1683600019167f5498ca14b47efd3ba2cc2f61cb5bfda0a384797f92d54a038d3c578e236840ad846040518082815260200191505060405180910390a36001905092915050565b6000809054906101000a900473ffffffffffffffffffffffffffffffffffffffff1673ffffffffffffffffffffffffffffffffffffffff163373ffffffffffffffffffffffffffffffffffffffff1614151561047e57600080fd5b6000809054906101000a900473ffffffffffffffffffffffffffffffffffffffff1673ffffffffffffffffffffffffffffffffffffffff167ff8df31144d9c2f0f6b59d69b8b98abd5459d07f2742c4df920b25aae33c6482060405160405180910390a260008060006101000a81548173ffffffffffffffffffffffffffffffffffffffff021916908373ffffffffffffffffffffffffffffffffffffffff160217905550565b60008060016000846000191660001916815260200190815260200160002060000160009054906101000a900473ffffffffffffffffffffffffffffffffffffffff166001600085600019166000191681526020019081526020016000206001015491509150915091565b6000809054906101000a900473ffffffffffffffffffffffffffffffffffffffff1681565b6000806000809054906101000a900473ffffffffffffffffffffffffffffffffffffffff1673ffffffffffffffffffffffffffffffffffffffff163373ffffffffffffffffffffffffffffffffffffffff1614151561061257600080fd5b600090505b83518110156107f857600260009054906101000a900473ffffffffffffffffffffffffffffffffffffffff1673ffffffffffffffffffffffffffffffffffffffff1663a9059cbb858381518110151561066c57fe5b90602001906020020151858481518110151561068457fe5b906020019060200201516040518363ffffffff167c0100000000000000000000000000000000000000000000000000000000028152600401808373ffffffffffffffffffffffffffffffffffffffff1673ffffffffffffffffffffffffffffffffffffffff16815260200182815260200192505050602060405180830381600087803b15801561071357600080fd5b505af1158015610727573d6000803e3d6000fd5b505050506040513d602081101561073d57600080fd5b810190808051906020019092919050505091508115156107eb576040517f08c379a00000000000000000000000000000000000000000000000000000000081526004018080602001828103825260248152602001807f54686520746f6b656e7320776173206e6f742073656e7420746869732061646481526020017f726573730000000000000000000000000000000000000000000000000000000081525060400191505060405180910390fd5b8080600101915050610617565b7f6ddb3dc2cb7b47e7b517ae1becb4db4f4583efbffe0fc1d67245bce9f4e45da78484604051808060200180602001838103835285818151815260200191508051906020019060200280838360005b83811015610862578082015181840152602081019050610847565b50505050905001838103825284818151815260200191508051906020019060200280838360005b838110156108a4578082015181840152602081019050610889565b5050505090500194505050505060405180910390a150505050565b6000809054906101000a900473ffffffffffffffffffffffffffffffffffffffff1673ffffffffffffffffffffffffffffffffffffffff163373ffffffffffffffffffffffffffffffffffffffff1614151561091a57600080fd5b61092381610926565b50565b600073ffffffffffffffffffffffffffffffffffffffff168173ffffffffffffffffffffffffffffffffffffffff161415151561096257600080fd5b8073ffffffffffffffffffffffffffffffffffffffff166000809054906101000a900473ffffffffffffffffffffffffffffffffffffffff1673ffffffffffffffffffffffffffffffffffffffff167f8be0079c531659141344cd1fd0a4f28419497f9722a3daafe3b4186f6b6457e060405160405180910390a3806000806101000a81548173ffffffffffffffffffffffffffffffffffffffff021916908373ffffffffffffffffffffffffffffffffffffffff160217905550505600a165627a7a72305820d670eafe24894036aab83484038389b9d58102b12c250a8e8d579b6ace6dbfd20029",
  "source": "pragma solidity ^0.4.24;\n\nimport \"../../FIN-ERC20/contracts/StandardToken.sol\";\nimport \"../../FIN-ERC20/contracts/MintableToken.sol\";\nimport \"../../OWNABLE/Ownable.sol\";\n\n/**\n * @title FinExchange\n * @dev The FinExchange contract has an ERC20Token contract address which\n * utilises transfer functions to tranfer tokens to the exchange escrow address\n */\n\ncontract FinExchange is Ownable{\n    //A struct to store the seller details\n    struct Seller {\n        address sellerAddress;\n        uint256 tokenDeposit;\n    }\n    mapping (bytes32 => Seller) sellers;\n    event DEPOSIT(bytes32 indexed uuid,address indexed sellerAddress, uint256 tokenDeposit);\n    event SENT(address[] receivers,uint256[] tokens);\n\n    MintableToken mintableToken;\n\n    /**\n    * @dev The FinExchange constructor sets the ERC20 token contract address\n    * account.\n    */\n    constructor(MintableToken _mintableToken) public {\n        mintableToken = _mintableToken;\n    }\n\n    /**\n     * @dev Map a seller details to a uuid\n     * @param _uuid is the unique identifer of a account\n     * @param _tokens is the number of tokens the seller wants to sell\n     */\n    function deposit(bytes32 _uuid, uint256 _tokens) public returns(bool){\n        require(_uuid != \"\" && _tokens >0 , \"Not valid parameters\");\n        sellers[_uuid] = Seller(msg.sender,_tokens);\n        emit DEPOSIT(_uuid,msg.sender,_tokens);\n        return true;\n    }\n\n    /**\n     * @dev sends tokens to multiple address\n     * @param _to array of addresss to send tokens\n     * @param _tokens array of tokens to be sent\n    */\n    function sendTokens(address[] _to,uint256[] _tokens) public onlyOwner{\n        bool success;\n        for(uint256 i=0; i<_to.length; i++) {\n            success = mintableToken.transfer(_to[i],_tokens[i]);\n            require(success, \"The tokens was not sent this address\");\n        }\n        emit SENT(_to,_tokens);\n    }\n\n    /**\n     * @dev disaplys the seller details by UUID\n     * @param _uuid is the unique identifer of a account\n    */\n    function getSeller(bytes32 _uuid) public view returns(address,uint256){\n        return (sellers[_uuid].sellerAddress,sellers[_uuid].tokenDeposit);\n    }\n\n}",
  "sourcePath": "/media/toniya/HDD/dapp_contracts/contracts/FIN-EXCHANGE/contracts/FinExchange.sol",
  "compiler": {
    "name": "solc",
    "version": "0.4.24+commit.e67f0147.Emscripten.clang"
  },
  "schemaVersion": "2.0.1",
  "updatedAt": "2018-08-10T07:46:06.314Z"
}