{
  "contractName": "FINMigrate",
  "abi": [
    {
      "constant": true,
      "inputs": [
        {
          "name": "",
          "type": "address"
        }
      ],
      "name": "claimableFIN",
      "outputs": [
        {
          "name": "",
          "type": "uint256"
        }
      ],
      "payable": false,
      "stateMutability": "view",
      "type": "function"
    },
    {
      "constant": false,
      "inputs": [],
      "name": "renounceOwnership",
      "outputs": [],
      "payable": false,
      "stateMutability": "nonpayable",
      "type": "function"
    },
    {
      "constant": true,
      "inputs": [],
      "name": "owner",
      "outputs": [
        {
          "name": "",
          "type": "address"
        }
      ],
      "payable": false,
      "stateMutability": "view",
      "type": "function"
    },
    {
      "constant": false,
      "inputs": [
        {
          "name": "_newOwner",
          "type": "address"
        }
      ],
      "name": "transferOwnership",
      "outputs": [],
      "payable": false,
      "stateMutability": "nonpayable",
      "type": "function"
    },
    {
      "inputs": [
        {
          "name": "_migrationRate",
          "type": "uint256"
        }
      ],
      "payable": false,
      "stateMutability": "nonpayable",
      "type": "constructor"
    },
    {
      "anonymous": false,
      "inputs": [
        {
          "indexed": true,
          "name": "_recordAddress",
          "type": "address"
        },
        {
          "indexed": false,
          "name": "_finPointAmount",
          "type": "uint256"
        },
        {
          "indexed": false,
          "name": "_finAmount",
          "type": "uint256"
        }
      ],
      "name": "FINRecordUpdate",
      "type": "event"
    },
    {
      "anonymous": false,
      "inputs": [
        {
          "indexed": true,
          "name": "_oldAddress",
          "type": "address"
        },
        {
          "indexed": true,
          "name": "_newAddress",
          "type": "address"
        },
        {
          "indexed": false,
          "name": "_finAmount",
          "type": "uint256"
        }
      ],
      "name": "FINRecordMove",
      "type": "event"
    },
    {
      "anonymous": false,
      "inputs": [
        {
          "indexed": true,
          "name": "previousOwner",
          "type": "address"
        }
      ],
      "name": "OwnershipRenounced",
      "type": "event"
    },
    {
      "anonymous": false,
      "inputs": [
        {
          "indexed": true,
          "name": "previousOwner",
          "type": "address"
        },
        {
          "indexed": true,
          "name": "newOwner",
          "type": "address"
        }
      ],
      "name": "OwnershipTransferred",
      "type": "event"
    },
    {
      "constant": false,
      "inputs": [
        {
          "name": "_recordAddress",
          "type": "address"
        },
        {
          "name": "_finPointAmount",
          "type": "uint256"
        },
        {
          "name": "_applyMigrationRate",
          "type": "bool"
        }
      ],
      "name": "recordUpdate",
      "outputs": [],
      "payable": false,
      "stateMutability": "nonpayable",
      "type": "function"
    },
    {
      "constant": false,
      "inputs": [
        {
          "name": "_oldAddress",
          "type": "address"
        },
        {
          "name": "_newAddress",
          "type": "address"
        }
      ],
      "name": "recordMove",
      "outputs": [],
      "payable": false,
      "stateMutability": "nonpayable",
      "type": "function"
    },
    {
      "constant": true,
      "inputs": [
        {
          "name": "_recordAddress",
          "type": "address"
        }
      ],
      "name": "recordGet",
      "outputs": [
        {
          "name": "",
          "type": "uint256"
        }
      ],
      "payable": false,
      "stateMutability": "view",
      "type": "function"
    }
  ],
  "bytecode": "0x608060405234801561001057600080fd5b50604051602080610b1483398101806040528101908080519060200190929190505050336000806101000a81548173ffffffffffffffffffffffffffffffffffffffff021916908373ffffffffffffffffffffffffffffffffffffffff1602179055506103e8811115151561008457600080fd5b6064811015151561009457600080fd5b8060018190555050610a69806100ab6000396000f300608060405260043610610083576000357c0100000000000000000000000000000000000000000000000000000000900463ffffffff1680630a34e5461461008857806330977ab8146100e15780636a1c1a8714610144578063715018a61461019b5780638da5cb5b146101b2578063992817b914610209578063f2fde38b14610260575b600080fd5b34801561009457600080fd5b506100df600480360381019080803573ffffffffffffffffffffffffffffffffffffffff169060200190929190803590602001909291908035151590602001909291905050506102a3565b005b3480156100ed57600080fd5b50610142600480360381019080803573ffffffffffffffffffffffffffffffffffffffff169060200190929190803573ffffffffffffffffffffffffffffffffffffffff169060200190929190505050610482565b005b34801561015057600080fd5b50610185600480360381019080803573ffffffffffffffffffffffffffffffffffffffff1690602001909291905050506106ea565b6040518082815260200191505060405180910390f35b3480156101a757600080fd5b506101b0610702565b005b3480156101be57600080fd5b506101c7610804565b604051808273ffffffffffffffffffffffffffffffffffffffff1673ffffffffffffffffffffffffffffffffffffffff16815260200191505060405180910390f35b34801561021557600080fd5b5061024a600480360381019080803573ffffffffffffffffffffffffffffffffffffffff169060200190929190505050610829565b6040518082815260200191505060405180910390f35b34801561026c57600080fd5b506102a1600480360381019080803573ffffffffffffffffffffffffffffffffffffffff169060200190929190505050610872565b005b60008060009054906101000a900473ffffffffffffffffffffffffffffffffffffffff1673ffffffffffffffffffffffffffffffffffffffff163373ffffffffffffffffffffffffffffffffffffffff1614151561030057600080fd5b620186a0831015151561031257600080fd5b60011515821515141561034e576103476064610339600154866108d990919063ffffffff16565b61091190919063ffffffff16565b9050610352565b8290505b6103a481600260008773ffffffffffffffffffffffffffffffffffffffff1673ffffffffffffffffffffffffffffffffffffffff1681526020019081526020016000205461092790919063ffffffff16565b600260008673ffffffffffffffffffffffffffffffffffffffff1673ffffffffffffffffffffffffffffffffffffffff168152602001908152602001600020819055508373ffffffffffffffffffffffffffffffffffffffff167f71f5bcc59bb09896cb1cfd0b64c73dcb8c349f2469e9d130637ec3c9aa29d64084600260008873ffffffffffffffffffffffffffffffffffffffff1673ffffffffffffffffffffffffffffffffffffffff16815260200190815260200160002054604051808381526020018281526020019250505060405180910390a250505050565b6000809054906101000a900473ffffffffffffffffffffffffffffffffffffffff1673ffffffffffffffffffffffffffffffffffffffff163373ffffffffffffffffffffffffffffffffffffffff161415156104dd57600080fd5b6000600260008473ffffffffffffffffffffffffffffffffffffffff1673ffffffffffffffffffffffffffffffffffffffff168152602001908152602001600020541415151561052c57600080fd5b6000600260008373ffffffffffffffffffffffffffffffffffffffff1673ffffffffffffffffffffffffffffffffffffffff1681526020019081526020016000205414151561057a57600080fd5b600260008373ffffffffffffffffffffffffffffffffffffffff1673ffffffffffffffffffffffffffffffffffffffff16815260200190815260200160002054600260008373ffffffffffffffffffffffffffffffffffffffff1673ffffffffffffffffffffffffffffffffffffffff168152602001908152602001600020819055506000600260008473ffffffffffffffffffffffffffffffffffffffff1673ffffffffffffffffffffffffffffffffffffffff168152602001908152602001600020819055508073ffffffffffffffffffffffffffffffffffffffff168273ffffffffffffffffffffffffffffffffffffffff167f1a8504b7a56febffa72bfd5ad14a41d94c27293bebefb0db08aaed28982709f0600260008573ffffffffffffffffffffffffffffffffffffffff1673ffffffffffffffffffffffffffffffffffffffff168152602001908152602001600020546040518082815260200191505060405180910390a35050565b60026020528060005260406000206000915090505481565b6000809054906101000a900473ffffffffffffffffffffffffffffffffffffffff1673ffffffffffffffffffffffffffffffffffffffff163373ffffffffffffffffffffffffffffffffffffffff1614151561075d57600080fd5b6000809054906101000a900473ffffffffffffffffffffffffffffffffffffffff1673ffffffffffffffffffffffffffffffffffffffff167ff8df31144d9c2f0f6b59d69b8b98abd5459d07f2742c4df920b25aae33c6482060405160405180910390a260008060006101000a81548173ffffffffffffffffffffffffffffffffffffffff021916908373ffffffffffffffffffffffffffffffffffffffff160217905550565b6000809054906101000a900473ffffffffffffffffffffffffffffffffffffffff1681565b6000600260008373ffffffffffffffffffffffffffffffffffffffff1673ffffffffffffffffffffffffffffffffffffffff168152602001908152602001600020549050919050565b6000809054906101000a900473ffffffffffffffffffffffffffffffffffffffff1673ffffffffffffffffffffffffffffffffffffffff163373ffffffffffffffffffffffffffffffffffffffff161415156108cd57600080fd5b6108d681610943565b50565b6000808314156108ec576000905061090b565b81830290508183828115156108fd57fe5b0414151561090757fe5b8090505b92915050565b6000818381151561091e57fe5b04905092915050565b6000818301905082811015151561093a57fe5b80905092915050565b600073ffffffffffffffffffffffffffffffffffffffff168173ffffffffffffffffffffffffffffffffffffffff161415151561097f57600080fd5b8073ffffffffffffffffffffffffffffffffffffffff166000809054906101000a900473ffffffffffffffffffffffffffffffffffffffff1673ffffffffffffffffffffffffffffffffffffffff167f8be0079c531659141344cd1fd0a4f28419497f9722a3daafe3b4186f6b6457e060405160405180910390a3806000806101000a81548173ffffffffffffffffffffffffffffffffffffffff021916908373ffffffffffffffffffffffffffffffffffffffff160217905550505600a165627a7a723058209e217f256850a42303bf12bac459de4a880aa657f0626571e6ccd67f90a9dc420029",
  "source": "pragma solidity ^0.4.24;\n/**\n    The MIT License (MIT)\n\n    Copyright (c) 2018 Finterra Technologies Sdn Bhd.\n\n    Permission is hereby granted, free of charge, to any person obtaining\n    a copy of this software and associated documentation files (the\n    \"Software\"), to deal in the Software without restriction, including\n    without limitation the rights to use, copy, modify, merge, publish,\n    distribute, sublicense, and/or sell copies of the Software, and to\n    permit persons to whom the Software is furnished to do so, subject to\n    the following conditions:\n\n    The above copyright notice and this permission notice shall be included\n    in all copies or substantial portions of the Software.\n\n    THE SOFTWARE IS PROVIDED \"AS IS\", WITHOUT WARRANTY OF ANY KIND, EXPRESS\n    OR IMPLIED, INCLUDING BUT NOT LIMITED TO THE WARRANTIES OF\n    MERCHANTABILITY, FITNESS FOR A PARTICULAR PURPOSE AND NONINFRINGEMENT.\n    IN NO EVENT SHALL THE AUTHORS OR COPYRIGHT HOLDERS BE LIABLE FOR ANY\n    CLAIM, DAMAGES OR OTHER LIABILITY, WHETHER IN AN ACTION OF CONTRACT,\n    TORT OR OTHERWISE, ARISING FROM, OUT OF OR IN CONNECTION WITH THE\n    SOFTWARE OR THE USE OR OTHER DEALINGS IN THE SOFTWARE.\n**/\n\nimport \"../../OWNABLE/Ownable.sol\";\nimport \"../../MATH/SafeMath.sol\";\n\n/**\n * @title FINMigrate\n * @author Terry Wilkinson <terry.wilkinson@finterra.org>\n * @dev The FINMigrate contract is used for current FIN point holders\n * to move thier held FIN points to ERC-20 FIN tokens which will be claimable\n * after the audit period. This contract in particular is for onboarding and\n * storing the resulting FIN ERc20 amount records.\n * These records will be used as reference for claiming ERC20 FINs on the Ethereum network.\n */\n\ncontract FINMigrate is Ownable {\n    using SafeMath for uint256;\n\n    // migrationRate is the multiplier to calculate the number of FIN ERC20 claimable per FIN point migrated\n    // e.g., 100 = 1:1 migration ratio\n    // this migration rate can be seen as a kind of airdrop for exsisting FIN point holders at the time of migration\n    uint256 migrationRate;\n\n    // an address map used to store the per account claimable FIN ERC20 record\n    // as a result of swapped FIN points\n    mapping (address => uint256) public claimableFIN;\n\n    constructor(uint256 _migrationRate) public {\n        require(_migrationRate <= 1000); // maximum 10x migration rate\n        require(_migrationRate >= 100); // minimum 1x migration rate\n        migrationRate = _migrationRate;\n    }\n\n    event FINRecordUpdate(\n        address indexed _recordAddress,\n        uint256 _finPointAmount,\n        uint256 _finAmount\n    );\n\n    event FINRecordMove(\n        address indexed _oldAddress,\n        address indexed _newAddress,\n        uint256 _finAmount\n    );\n\n    /**\n    * @dev Used to calculate and store the amount of claimable FIN ERC20 from existing FIN point balances\n    * @param _recordAddress - the registered address assigned to FIN ERC20 claiming\n    * @param _finPointAmount - the original amount of FIN points to be migrated, this param should always be entered as base units\n    * i.e., 1 FIN = 10**18 base units\n    * @param _applyMigrationRate - flag to apply migration rate or not, any Finterra Technologies company FIN point allocations\n    * are strictly migrated at one to one and do not recive the migration (airdrop) bonus applied to FIN point user balances\n    */\n    function recordUpdate(address _recordAddress, uint256 _finPointAmount, bool _applyMigrationRate) public onlyOwner {\n        require(_finPointAmount >= 100000); // minimum allowed FIN 0.000000000001 (in base units) to avoid large rounding errors\n\n        uint afterMigrationFIN;\n\n        if(_applyMigrationRate == true) {\n            afterMigrationFIN = _finPointAmount.mul(migrationRate).div(100);\n        } else {\n            afterMigrationFIN = _finPointAmount;\n        }\n\n        claimableFIN[_recordAddress] = claimableFIN[_recordAddress].add(afterMigrationFIN);\n\n        emit FINRecordUpdate(_recordAddress, _finPointAmount, claimableFIN[_recordAddress]);\n    }\n\n    /**\n    * @dev Used to move FIN ERC20 records from one address to another, primarily in case a user has lost access to their originally registered account\n    * @param _oldAddress - the original registered address\n    * @param _newAddress - the new registerd address\n    */\n    function recordMove(address _oldAddress, address _newAddress) public onlyOwner {\n        require(claimableFIN[_oldAddress] != 0);\n        require(claimableFIN[_newAddress] == 0);\n\n        claimableFIN[_newAddress] = claimableFIN[_oldAddress];\n        claimableFIN[_oldAddress] = 0;\n\n        emit FINRecordMove(_oldAddress, _newAddress, claimableFIN[_newAddress]);\n    }\n\n    /**\n    * @dev Used to retrieve the FIN ERC20 migration records for an address, for FIN ERC20 claiming\n    * @param _recordAddress - the registered address where FIN ERC20 tokens can be claimed\n    * @return uint256 - the amount of recorded FIN ERC20 after FIN point migration\n    */\n    function recordGet(address _recordAddress) view public returns (uint256) {\n        return claimableFIN[_recordAddress];\n    }\n}",
  "sourcePath": "/media/toniya/HDD/dapp_contracts/contracts/FIN-MIGRATE/contracts/FINMigrate.sol",
  "compiler": {
    "name": "solc",
    "version": "0.4.24+commit.e67f0147.Emscripten.clang"
  },
  "schemaVersion": "2.0.1",
  "updatedAt": "2018-08-10T07:46:06.306Z"
}