{
  "contractName": "GTXSwap",
  "abi": [
    {
      "constant": false,
      "inputs": [],
      "name": "renounceOwnership",
      "outputs": [],
      "payable": false,
      "stateMutability": "nonpayable",
      "type": "function"
    },
    {
      "constant": true,
      "inputs": [],
      "name": "owner",
      "outputs": [
        {
          "name": "",
          "type": "address"
        }
      ],
      "payable": false,
      "stateMutability": "view",
      "type": "function"
    },
    {
      "constant": true,
      "inputs": [
        {
          "name": "",
          "type": "address"
        }
      ],
      "name": "claimableGTX",
      "outputs": [
        {
          "name": "",
          "type": "uint256"
        }
      ],
      "payable": false,
      "stateMutability": "view",
      "type": "function"
    },
    {
      "constant": false,
      "inputs": [
        {
          "name": "_newOwner",
          "type": "address"
        }
      ],
      "name": "transferOwnership",
      "outputs": [],
      "payable": false,
      "stateMutability": "nonpayable",
      "type": "function"
    },
    {
      "inputs": [
        {
          "name": "_swapRate",
          "type": "uint256"
        }
      ],
      "payable": false,
      "stateMutability": "nonpayable",
      "type": "constructor"
    },
    {
      "anonymous": false,
      "inputs": [
        {
          "indexed": true,
          "name": "_recordAddress",
          "type": "address"
        },
        {
          "indexed": false,
          "name": "_finPointAmount",
          "type": "uint256"
        },
        {
          "indexed": false,
          "name": "_gtxAmount",
          "type": "uint256"
        }
      ],
      "name": "GTXRecordUpdate",
      "type": "event"
    },
    {
      "anonymous": false,
      "inputs": [
        {
          "indexed": true,
          "name": "_oldAddress",
          "type": "address"
        },
        {
          "indexed": true,
          "name": "_newAddress",
          "type": "address"
        },
        {
          "indexed": false,
          "name": "_gtxAmount",
          "type": "uint256"
        }
      ],
      "name": "GTXRecordMove",
      "type": "event"
    },
    {
      "anonymous": false,
      "inputs": [
        {
          "indexed": true,
          "name": "previousOwner",
          "type": "address"
        }
      ],
      "name": "OwnershipRenounced",
      "type": "event"
    },
    {
      "anonymous": false,
      "inputs": [
        {
          "indexed": true,
          "name": "previousOwner",
          "type": "address"
        },
        {
          "indexed": true,
          "name": "newOwner",
          "type": "address"
        }
      ],
      "name": "OwnershipTransferred",
      "type": "event"
    },
    {
      "constant": false,
      "inputs": [
        {
          "name": "_recordAddress",
          "type": "address"
        },
        {
          "name": "_finPointAmount",
          "type": "uint256"
        },
        {
          "name": "_applySwapRate",
          "type": "bool"
        }
      ],
      "name": "recordUpdate",
      "outputs": [],
      "payable": false,
      "stateMutability": "nonpayable",
      "type": "function"
    },
    {
      "constant": false,
      "inputs": [
        {
          "name": "_oldAddress",
          "type": "address"
        },
        {
          "name": "_newAddress",
          "type": "address"
        }
      ],
      "name": "recordMove",
      "outputs": [],
      "payable": false,
      "stateMutability": "nonpayable",
      "type": "function"
    },
    {
      "constant": true,
      "inputs": [
        {
          "name": "_recordAddress",
          "type": "address"
        }
      ],
      "name": "recordGet",
      "outputs": [
        {
          "name": "",
          "type": "uint256"
        }
      ],
      "payable": false,
      "stateMutability": "view",
      "type": "function"
    }
  ],
  "bytecode": "0x608060405234801561001057600080fd5b50604051602080610b1383398101806040528101908080519060200190929190505050336000806101000a81548173ffffffffffffffffffffffffffffffffffffffff021916908373ffffffffffffffffffffffffffffffffffffffff1602179055506103e8811115151561008457600080fd5b60008111151561009357600080fd5b8060018190555050610a69806100aa6000396000f300608060405260043610610083576000357c0100000000000000000000000000000000000000000000000000000000900463ffffffff1680630a34e5461461008857806330977ab8146100e1578063715018a6146101445780638da5cb5b1461015b578063992817b9146101b2578063a72f13f214610209578063f2fde38b14610260575b600080fd5b34801561009457600080fd5b506100df600480360381019080803573ffffffffffffffffffffffffffffffffffffffff169060200190929190803590602001909291908035151590602001909291905050506102a3565b005b3480156100ed57600080fd5b50610142600480360381019080803573ffffffffffffffffffffffffffffffffffffffff169060200190929190803573ffffffffffffffffffffffffffffffffffffffff169060200190929190505050610482565b005b34801561015057600080fd5b506101596106ea565b005b34801561016757600080fd5b506101706107ec565b604051808273ffffffffffffffffffffffffffffffffffffffff1673ffffffffffffffffffffffffffffffffffffffff16815260200191505060405180910390f35b3480156101be57600080fd5b506101f3600480360381019080803573ffffffffffffffffffffffffffffffffffffffff169060200190929190505050610811565b6040518082815260200191505060405180910390f35b34801561021557600080fd5b5061024a600480360381019080803573ffffffffffffffffffffffffffffffffffffffff16906020019092919050505061085a565b6040518082815260200191505060405180910390f35b34801561026c57600080fd5b506102a1600480360381019080803573ffffffffffffffffffffffffffffffffffffffff169060200190929190505050610872565b005b60008060009054906101000a900473ffffffffffffffffffffffffffffffffffffffff1673ffffffffffffffffffffffffffffffffffffffff163373ffffffffffffffffffffffffffffffffffffffff1614151561030057600080fd5b620186a0831015151561031257600080fd5b60011515821515141561034e576103476064610339600154866108d990919063ffffffff16565b61091190919063ffffffff16565b9050610352565b8290505b6103a481600260008773ffffffffffffffffffffffffffffffffffffffff1673ffffffffffffffffffffffffffffffffffffffff1681526020019081526020016000205461092790919063ffffffff16565b600260008673ffffffffffffffffffffffffffffffffffffffff1673ffffffffffffffffffffffffffffffffffffffff168152602001908152602001600020819055508373ffffffffffffffffffffffffffffffffffffffff167fbefc71191d5e08a30532302c323ad089af1c9ca244a5a8dc8259573acfc8fb6f84600260008873ffffffffffffffffffffffffffffffffffffffff1673ffffffffffffffffffffffffffffffffffffffff16815260200190815260200160002054604051808381526020018281526020019250505060405180910390a250505050565b6000809054906101000a900473ffffffffffffffffffffffffffffffffffffffff1673ffffffffffffffffffffffffffffffffffffffff163373ffffffffffffffffffffffffffffffffffffffff161415156104dd57600080fd5b6000600260008473ffffffffffffffffffffffffffffffffffffffff1673ffffffffffffffffffffffffffffffffffffffff168152602001908152602001600020541415151561052c57600080fd5b6000600260008373ffffffffffffffffffffffffffffffffffffffff1673ffffffffffffffffffffffffffffffffffffffff1681526020019081526020016000205414151561057a57600080fd5b600260008373ffffffffffffffffffffffffffffffffffffffff1673ffffffffffffffffffffffffffffffffffffffff16815260200190815260200160002054600260008373ffffffffffffffffffffffffffffffffffffffff1673ffffffffffffffffffffffffffffffffffffffff168152602001908152602001600020819055506000600260008473ffffffffffffffffffffffffffffffffffffffff1673ffffffffffffffffffffffffffffffffffffffff168152602001908152602001600020819055508073ffffffffffffffffffffffffffffffffffffffff168273ffffffffffffffffffffffffffffffffffffffff167f30605a1ce7053cb4e0f6b20bfce74ee5abc1c4b0fbb8469b38d90686f52672f6600260008573ffffffffffffffffffffffffffffffffffffffff1673ffffffffffffffffffffffffffffffffffffffff168152602001908152602001600020546040518082815260200191505060405180910390a35050565b6000809054906101000a900473ffffffffffffffffffffffffffffffffffffffff1673ffffffffffffffffffffffffffffffffffffffff163373ffffffffffffffffffffffffffffffffffffffff1614151561074557600080fd5b6000809054906101000a900473ffffffffffffffffffffffffffffffffffffffff1673ffffffffffffffffffffffffffffffffffffffff167ff8df31144d9c2f0f6b59d69b8b98abd5459d07f2742c4df920b25aae33c6482060405160405180910390a260008060006101000a81548173ffffffffffffffffffffffffffffffffffffffff021916908373ffffffffffffffffffffffffffffffffffffffff160217905550565b6000809054906101000a900473ffffffffffffffffffffffffffffffffffffffff1681565b6000600260008373ffffffffffffffffffffffffffffffffffffffff1673ffffffffffffffffffffffffffffffffffffffff168152602001908152602001600020549050919050565b60026020528060005260406000206000915090505481565b6000809054906101000a900473ffffffffffffffffffffffffffffffffffffffff1673ffffffffffffffffffffffffffffffffffffffff163373ffffffffffffffffffffffffffffffffffffffff161415156108cd57600080fd5b6108d681610943565b50565b6000808314156108ec576000905061090b565b81830290508183828115156108fd57fe5b0414151561090757fe5b8090505b92915050565b6000818381151561091e57fe5b04905092915050565b6000818301905082811015151561093a57fe5b80905092915050565b600073ffffffffffffffffffffffffffffffffffffffff168173ffffffffffffffffffffffffffffffffffffffff161415151561097f57600080fd5b8073ffffffffffffffffffffffffffffffffffffffff166000809054906101000a900473ffffffffffffffffffffffffffffffffffffffff1673ffffffffffffffffffffffffffffffffffffffff167f8be0079c531659141344cd1fd0a4f28419497f9722a3daafe3b4186f6b6457e060405160405180910390a3806000806101000a81548173ffffffffffffffffffffffffffffffffffffffff021916908373ffffffffffffffffffffffffffffffffffffffff160217905550505600a165627a7a72305820c1824d69b8f437c26b891a0e62507029fb198d3e38383d9b0f7a35fbe7bc20020029",
  "source": "pragma solidity ^0.4.24;\n/**\n    The MIT License (MIT)\n\n    Copyright (c) 2018 Finterra Technologies Sdn Bhd.\n\n    Permission is hereby granted, free of charge, to any person obtaining\n    a copy of this software and associated documentation files (the\n    \"Software\"), to deal in the Software without restriction, including\n    without limitation the rights to use, copy, modify, merge, publish,\n    distribute, sublicense, and/or sell copies of the Software, and to\n    permit persons to whom the Software is furnished to do so, subject to\n    the following conditions:\n\n    The above copyright notice and this permission notice shall be included\n    in all copies or substantial portions of the Software.\n\n    THE SOFTWARE IS PROVIDED \"AS IS\", WITHOUT WARRANTY OF ANY KIND, EXPRESS\n    OR IMPLIED, INCLUDING BUT NOT LIMITED TO THE WARRANTIES OF\n    MERCHANTABILITY, FITNESS FOR A PARTICULAR PURPOSE AND NONINFRINGEMENT.\n    IN NO EVENT SHALL THE AUTHORS OR COPYRIGHT HOLDERS BE LIABLE FOR ANY\n    CLAIM, DAMAGES OR OTHER LIABILITY, WHETHER IN AN ACTION OF CONTRACT,\n    TORT OR OTHERWISE, ARISING FROM, OUT OF OR IN CONNECTION WITH THE\n    SOFTWARE OR THE USE OR OTHER DEALINGS IN THE SOFTWARE.\n**/\n\nimport \"../../OWNABLE/Ownable.sol\";\nimport \"../../MATH/SafeMath.sol\";\n\n/**\n * @title GTXSwap\n * @author Terry Wilkinson <terry.wilkinson@finterra.org>\n * @dev The GTXSwap contract is used for current FIN point holders\n * to swap a portion of thier held points to GTX tokens which will be\n * claimable after the GALLACTIC sale. This contract in particular is for onboarding and\n * storing the resulting GTX amount records.\n * These records will be used as reference during the claiming period of the GALLACTIC sale.\n */\n\ncontract GTXSwap is Ownable {\n    using SafeMath for uint256;\n\n    // swapRate is the multiplier to calculate the number of GTX claimable per FIN swapped\n    // e.g., 100 = 1:1 swap ratio\n    uint swapRate;\n\n    // an address map used to store the per account claimable GTX\n    // as a result of swapped FIN points\n    mapping (address => uint256) public claimableGTX;\n\n    constructor(uint256 _swapRate) public {\n        require(_swapRate <= 1000); // maximum 10x swap rate\n        require(_swapRate > 0); // minimum .01x swap rate\n        swapRate = _swapRate;\n    }\n\n    event GTXRecordUpdate(\n        address indexed _recordAddress,\n        uint256 _finPointAmount,\n        uint256 _gtxAmount\n    );\n\n    event GTXRecordMove(\n        address indexed _oldAddress,\n        address indexed _newAddress,\n        uint256 _gtxAmount\n    );\n\n    /**\n    * @dev Used to calculate and store the amount of claimable GTX for those exsisting FIN point holders\n    * who opt to swap FIN points for GTX\n    * @param _recordAddress - the registered address where GTX can be claimed from\n    * @param _finPointAmount - the amount of FINs to be swapped for GTX, this param should always be entered as base units\n    * i.e., 1 FIN = 10**18 base units\n    * @param _applySwapRate - flag to apply swap rate or do one for one swap, any Finterra Technologies company FIN point allocations\n    * are strictly swapped at one to one and do not recive the swap bonus applied to FIN point user balances\n    */\n    function recordUpdate(address _recordAddress, uint256 _finPointAmount, bool _applySwapRate) public onlyOwner {\n        require(_finPointAmount >= 100000); // minimum allowed FIN 0.000000000001 (in base units) to avoid large rounding errors\n\n        uint256 afterSwapGTX;\n\n        if(_applySwapRate == true) {\n            afterSwapGTX = _finPointAmount.mul(swapRate).div(100);\n        } else {\n            afterSwapGTX = _finPointAmount;\n        }\n\n        claimableGTX[_recordAddress] = claimableGTX[_recordAddress].add(afterSwapGTX);\n\n        emit GTXRecordUpdate(_recordAddress, _finPointAmount, claimableGTX[_recordAddress]);\n    }\n\n    /**\n    * @dev Used to move GTX records from one address to another, primarily in case a user has lost access to their originally registered account\n    * @param _oldAddress - the original registered address\n    * @param _newAddress - the new registerd address\n    */\n    function recordMove(address _oldAddress, address _newAddress) public onlyOwner {\n        require(claimableGTX[_oldAddress] != 0);\n        require(claimableGTX[_newAddress] == 0);\n\n        claimableGTX[_newAddress] = claimableGTX[_oldAddress];\n        claimableGTX[_oldAddress] = 0;\n\n        emit GTXRecordMove(_oldAddress, _newAddress, claimableGTX[_newAddress]);\n    }\n\n    /**\n    * @dev Used to retrieve the GTX swap records for an address, for GTX claiming after the GTX ICO\n    * @param _recordAddress - the registered address where GTX can be claimed from\n    * @return uint256 - the amount of recorded GTX after FIN point swapping\n    */\n    function recordGet(address _recordAddress) view public returns (uint256) {\n        return claimableGTX[_recordAddress];\n    }\n}",
  "sourcePath": "/media/toniya/HDD/dapp_contracts/contracts/FIN-GTX-SWAP/contracts/GTXSwap.sol",
  "compiler": {
    "name": "solc",
    "version": "0.4.24+commit.e67f0147.Emscripten.clang"
  },
  "schemaVersion": "2.0.1",
  "updatedAt": "2018-08-10T07:46:06.310Z"
}